{
  "_format": "hh-sol-artifact-1",
  "contractName": "Hack",
  "sourceName": "contracts/Hack.sol",
  "abi": [
    {
      "inputs": [
        {
          "internalType": "address",
          "name": "_logic",
          "type": "address"
        }
      ],
      "stateMutability": "nonpayable",
      "type": "constructor"
    },
    {
      "inputs": [],
      "name": "result",
      "outputs": [
        {
          "internalType": "bool",
          "name": "",
          "type": "bool"
        }
      ],
      "stateMutability": "view",
      "type": "function"
    },
    {
      "inputs": [],
      "name": "setmaliciousImp",
      "outputs": [
        {
          "internalType": "bool",
          "name": "",
          "type": "bool"
        }
      ],
      "stateMutability": "nonpayable",
      "type": "function"
    },
    {
      "inputs": [],
      "name": "testBrokenLogic",
      "outputs": [],
      "stateMutability": "nonpayable",
      "type": "function"
    }
  ],
  "bytecode": "0x608060405234801561001057600080fd5b506040516107823803806107828339818101604052602081101561003357600080fd5b8101908080519060200190929190505050806000806101000a81548173ffffffffffffffffffffffffffffffffffffffff021916908373ffffffffffffffffffffffffffffffffffffffff16021790555061009261009860201b60201c565b50610269565b60008060009054906101000a900473ffffffffffffffffffffffffffffffffffffffff1673ffffffffffffffffffffffffffffffffffffffff166040516024016040516020818303038152906040527f8129fc1c000000000000000000000000000000000000000000000000000000007bffffffffffffffffffffffffffffffffffffffffffffffffffffffff19166020820180517bffffffffffffffffffffffffffffffffffffffffffffffffffffffff83818316178352505050506040518082805190602001908083835b602083106101885780518252602082019150602081019050602083039250610165565b6001836020036101000a0380198251168184511680821785525050505050509050019150506000604051808303816000865af19150503d80600081146101ea576040519150601f19603f3d011682016040523d82523d6000602084013e6101ef565b606091505b5050905080610266576040517f08c379a00000000000000000000000000000000000000000000000000000000081526004018080602001828103825260158152602001807f696e6974616c697a652063616c6c206661696c6564000000000000000000000081525060200191505060405180910390fd5b50565b61050a806102786000396000f3fe608060405234801561001057600080fd5b50600436106100415760003560e01c80634b99236d1461004657806365372147146100505780638e074be314610072575b600080fd5b61004e610094565b005b6100586100d9565b604051808215151515815260200191505060405180910390f35b61007a6100ec565b604051808215151515815260200191505060405180910390f35b6100be6000809054906101000a900473ffffffffffffffffffffffffffffffffffffffff16610413565b600060146101000a81548160ff021916908315150217905550565b600060149054906101000a900460ff1681565b6000806040516100fb90610426565b604051809103906000f080158015610117573d6000803e3d6000fd5b50905060008060009054906101000a900473ffffffffffffffffffffffffffffffffffffffff1673ffffffffffffffffffffffffffffffffffffffff16826040516024016040516020818303038152906040527f4a409e2f000000000000000000000000000000000000000000000000000000007bffffffffffffffffffffffffffffffffffffffffffffffffffffffff19166020820180517bffffffffffffffffffffffffffffffffffffffffffffffffffffffff8381831617835250505050604051602401808373ffffffffffffffffffffffffffffffffffffffff1673ffffffffffffffffffffffffffffffffffffffff16815260200180602001828103825283818151815260200191508051906020019080838360005b8381101561024d578082015181840152602081019050610232565b50505050905090810190601f16801561027a5780820380516001836020036101000a031916815260200191505b5093505050506040516020818303038152906040527f4f1ef286000000000000000000000000000000000000000000000000000000007bffffffffffffffffffffffffffffffffffffffffffffffffffffffff19166020820180517bffffffffffffffffffffffffffffffffffffffffffffffffffffffff83818316178352505050506040518082805190602001908083835b60208310610330578051825260208201915060208101905060208303925061030d565b6001836020036101000a0380198251168184511680821785525050505050509050019150506000604051808303816000865af19150503d8060008114610392576040519150601f19603f3d011682016040523d82523d6000602084013e610397565b606091505b505090508061040e576040517f08c379a00000000000000000000000000000000000000000000000000000000081526004018080602001828103825260108152602001807f6861636b2063616c6c206661696c65640000000000000000000000000000000081525060200191505060405180910390fd5b505090565b600080823b905060008111915050919050565b60a2806104338339019056fe6080604052348015600f57600080fd5b5060848061001e6000396000f3fe6080604052348015600f57600080fd5b506004361060285760003560e01c80634a409e2f14602d575b600080fd5b60336035565b005b3373ffffffffffffffffffffffffffffffffffffffff16fffea26469706673582212203abe180c74c8da9e70e7e3bc4f7fa3b6ed4d1e5b824fa25f0df18a9aad3e635e64736f6c63430006090033a264697066735822122038e5781fa12c19f3bc47093e46a876125ec9c2f99e84293b727427bc176a0df364736f6c63430006090033",
  "linkReferences": {},
  "deployedLinkReferences": {}
}