{
  "contracts/Hack.sol": {
    "rek": {
      "abi": [
        {
          "inputs": [],
          "name": "poop",
          "outputs": [],
          "stateMutability": "nonpayable",
          "type": "function"
        }
      ],
      "evm": {
        "bytecode": {
          "linkReferences": {},
          "object": "6080604052348015600f57600080fd5b5060848061001e6000396000f3fe6080604052348015600f57600080fd5b506004361060285760003560e01c80634a409e2f14602d575b600080fd5b60336035565b005b3373ffffffffffffffffffffffffffffffffffffffff16fffea264697066735822122010d6759459aaf96349f5d67b7d2ecf32f841d64e12f7a295602a89bfabc388e564736f6c63430006090033",
          "opcodes": "PUSH1 0x80 PUSH1 0x40 MSTORE CALLVALUE DUP1 ISZERO PUSH1 0xF JUMPI PUSH1 0x0 DUP1 REVERT JUMPDEST POP PUSH1 0x84 DUP1 PUSH2 0x1E PUSH1 0x0 CODECOPY PUSH1 0x0 RETURN INVALID PUSH1 0x80 PUSH1 0x40 MSTORE CALLVALUE DUP1 ISZERO PUSH1 0xF JUMPI PUSH1 0x0 DUP1 REVERT JUMPDEST POP PUSH1 0x4 CALLDATASIZE LT PUSH1 0x28 JUMPI PUSH1 0x0 CALLDATALOAD PUSH1 0xE0 SHR DUP1 PUSH4 0x4A409E2F EQ PUSH1 0x2D JUMPI JUMPDEST PUSH1 0x0 DUP1 REVERT JUMPDEST PUSH1 0x33 PUSH1 0x35 JUMP JUMPDEST STOP JUMPDEST CALLER PUSH20 0xFFFFFFFFFFFFFFFFFFFFFFFFFFFFFFFFFFFFFFFF AND SELFDESTRUCT INVALID LOG2 PUSH5 0x6970667358 0x22 SLT KECCAK256 LT 0xD6 PUSH22 0x9459AAF96349F5D67B7D2ECF32F841D64E12F7A29560 0x2A DUP10 0xBF 0xAB 0xC3 DUP9 0xE5 PUSH5 0x736F6C6343 STOP MOD MULMOD STOP CALLER "
        },
        "methodIdentifiers": {
          "poop()": "4a409e2f"
        }
      }
    }
  }
}