{
  "_format": "hh-sol-artifact-1",
  "contractName": "Engine",
  "sourceName": "contracts/Motorbike.sol",
  "abi": [
    {
      "inputs": [],
      "name": "horsePower",
      "outputs": [
        {
          "internalType": "uint256",
          "name": "",
          "type": "uint256"
        }
      ],
      "stateMutability": "view",
      "type": "function"
    },
    {
      "inputs": [],
      "name": "initialize",
      "outputs": [],
      "stateMutability": "nonpayable",
      "type": "function"
    },
    {
      "inputs": [
        {
          "internalType": "address",
          "name": "newImplementation",
          "type": "address"
        },
        {
          "internalType": "bytes",
          "name": "data",
          "type": "bytes"
        }
      ],
      "name": "upgradeToAndCall",
      "outputs": [],
      "stateMutability": "payable",
      "type": "function"
    },
    {
      "inputs": [],
      "name": "upgrader",
      "outputs": [
        {
          "internalType": "address",
          "name": "",
          "type": "address"
        }
      ],
      "stateMutability": "view",
      "type": "function"
    }
  ],
  "bytecode": "0x608060405234801561001057600080fd5b506106c9806100206000396000f3fe60806040526004361061003f5760003560e01c80634f1ef28614610044578063564f6d711461011f5780638129fc1c1461014a578063af26974514610161575b600080fd5b61011d6004803603604081101561005a57600080fd5b81019080803573ffffffffffffffffffffffffffffffffffffffff1690602001909291908035906020019064010000000081111561009757600080fd5b8201836020820111156100a957600080fd5b803590602001918460018302840111640100000000831117156100cb57600080fd5b91908080601f016020809104026020016040519081016040528093929190818152602001838380828437600081840152601f19601f8201169050808301925050505050505091929192905050506101b8565b005b34801561012b57600080fd5b506101346101ce565b6040518082815260200191505060405180910390f35b34801561015657600080fd5b5061015f6101d4565b005b34801561016d57600080fd5b5061017661031d565b604051808273ffffffffffffffffffffffffffffffffffffffff1673ffffffffffffffffffffffffffffffffffffffff16815260200191505060405180910390f35b6101c0610343565b6101ca8282610408565b5050565b60015481565b600060019054906101000a900460ff16806101f357506101f261054a565b5b8061020a57506000809054906101000a900460ff16155b61025f576040517f08c379a000000000000000000000000000000000000000000000000000000000815260040180806020018281038252602e815260200180610639602e913960400191505060405180910390fd5b60008060019054906101000a900460ff1615905080156102af576001600060016101000a81548160ff02191690831515021790555060016000806101000a81548160ff0219169083151502179055505b6103e860018190555033600060026101000a81548173ffffffffffffffffffffffffffffffffffffffff021916908373ffffffffffffffffffffffffffffffffffffffff160217905550801561031a5760008060016101000a81548160ff0219169083151502179055505b50565b600060029054906101000a900473ffffffffffffffffffffffffffffffffffffffff1681565b600060029054906101000a900473ffffffffffffffffffffffffffffffffffffffff1673ffffffffffffffffffffffffffffffffffffffff163373ffffffffffffffffffffffffffffffffffffffff1614610406576040517f08c379a000000000000000000000000000000000000000000000000000000000815260040180806020018281038252600d8152602001807f43616e277420757067726164650000000000000000000000000000000000000081525060200191505060405180910390fd5b565b6104118261055b565b6000815111156105465760008273ffffffffffffffffffffffffffffffffffffffff16826040518082805190602001908083835b602083106104685780518252602082019150602081019050602083039250610445565b6001836020036101000a038019825116818451168082178552505050505050905001915050600060405180830381855af49150503d80600081146104c8576040519150601f19603f3d011682016040523d82523d6000602084013e6104cd565b606091505b5050905080610544576040517f08c379a000000000000000000000000000000000000000000000000000000000815260040180806020018281038252600b8152602001807f43616c6c206661696c656400000000000000000000000000000000000000000081525060200191505060405180910390fd5b505b5050565b600061055530610625565b15905090565b61056481610625565b6105b9576040517f08c379a000000000000000000000000000000000000000000000000000000000815260040180806020018281038252602d815260200180610667602d913960400191505060405180910390fd5b60007f360894a13ba1a3210667c828492db98dca3e2076cc3735a920a3ca505d382bbc9050818160000160006101000a81548173ffffffffffffffffffffffffffffffffffffffff021916908373ffffffffffffffffffffffffffffffffffffffff1602179055505050565b600080823b90506000811191505091905056fe496e697469616c697a61626c653a20636f6e747261637420697320616c726561647920696e697469616c697a6564455243313936373a206e657720696d706c656d656e746174696f6e206973206e6f74206120636f6e7472616374a2646970667358221220f9a191e6afb4ac190fffa56f3963a2b879f75c88126fe2576953d1fff2dae05664736f6c63430006090033",
  "linkReferences": {},
  "deployedLinkReferences": {}
}